{
  "_format": "hh-sol-artifact-1",
  "contractName": "Registry",
  "sourceName": "contracts/registry.sol",
  "abi": [
    {
      "inputs": [],
      "stateMutability": "nonpayable",
      "type": "constructor"
    },
    {
      "inputs": [
        {
          "internalType": "uint256",
          "name": "record",
          "type": "uint256"
        },
        {
          "internalType": "uint256",
          "name": "new_root",
          "type": "uint256"
        }
      ],
      "name": "addRecord",
      "outputs": [],
      "stateMutability": "nonpayable",
      "type": "function"
    },
    {
      "inputs": [],
      "name": "getRoots",
      "outputs": [
        {
          "internalType": "uint256[]",
          "name": "",
          "type": "uint256[]"
        }
      ],
      "stateMutability": "view",
      "type": "function"
    },
    {
      "inputs": [],
      "name": "getState",
      "outputs": [
        {
          "components": [
            {
              "internalType": "uint256[]",
              "name": "records",
              "type": "uint256[]"
            },
            {
              "internalType": "uint256",
              "name": "root",
              "type": "uint256"
            }
          ],
          "internalType": "struct Registry.RegistryState",
          "name": "",
          "type": "tuple"
        }
      ],
      "stateMutability": "view",
      "type": "function"
    },
    {
      "inputs": [],
      "name": "owner",
      "outputs": [
        {
          "internalType": "address",
          "name": "",
          "type": "address"
        }
      ],
      "stateMutability": "view",
      "type": "function"
    }
  ],
  "bytecode": "0x608060405234801561001057600080fd5b50336000806101000a81548173ffffffffffffffffffffffffffffffffffffffff021916908373ffffffffffffffffffffffffffffffffffffffff1602179055506106da806100606000396000f3fe608060405234801561001057600080fd5b506004361061004c5760003560e01c8063130cb150146100515780631865c57d1461006d57806335a5e06d1461008b5780638da5cb5b146100a9575b600080fd5b61006b60048036038101906100669190610325565b6100c7565b005b6100756101ab565b6040516100829190610460565b60405180910390f35b610093610254565b6040516100a091906104f1565b60405180910390f35b6100b16102ac565b6040516100be9190610554565b60405180910390f35b60008054906101000a900473ffffffffffffffffffffffffffffffffffffffff1673ffffffffffffffffffffffffffffffffffffffff163373ffffffffffffffffffffffffffffffffffffffff1614610155576040517f08c379a000000000000000000000000000000000000000000000000000000000815260040161014c906105f2565b60405180910390fd5b600182908060018154018082558091505060019003906000526020600020016000909190919091505560028190806001815401808255809150506001900390600052602060002001600090919091909150555050565b6101b36102d0565b6101bb6102d0565b600180548060200260200160405190810160405280929190818152602001828054801561020757602002820191906000526020600020905b8154815260200190600101908083116101f3575b50505050508160000181905250600260016002805490506102289190610641565b8154811061023957610238610675565b5b90600052602060002001548160200181815250508091505090565b606060028054806020026020016040519081016040528092919081815260200182805480156102a257602002820191906000526020600020905b81548152602001906001019080831161028e575b5050505050905090565b60008054906101000a900473ffffffffffffffffffffffffffffffffffffffff1681565b604051806040016040528060608152602001600081525090565b600080fd5b6000819050919050565b610302816102ef565b811461030d57600080fd5b50565b60008135905061031f816102f9565b92915050565b6000806040838503121561033c5761033b6102ea565b5b600061034a85828601610310565b925050602061035b85828601610310565b9150509250929050565b600081519050919050565b600082825260208201905092915050565b6000819050602082019050919050565b61039a816102ef565b82525050565b60006103ac8383610391565b60208301905092915050565b6000602082019050919050565b60006103d082610365565b6103da8185610370565b93506103e583610381565b8060005b838110156104165781516103fd88826103a0565b9750610408836103b8565b9250506001810190506103e9565b5085935050505092915050565b6000604083016000830151848203600086015261044082826103c5565b91505060208301516104556020860182610391565b508091505092915050565b6000602082019050818103600083015261047a8184610423565b905092915050565b600082825260208201905092915050565b600061049e82610365565b6104a88185610482565b93506104b383610381565b8060005b838110156104e45781516104cb88826103a0565b97506104d6836103b8565b9250506001810190506104b7565b5085935050505092915050565b6000602082019050818103600083015261050b8184610493565b905092915050565b600073ffffffffffffffffffffffffffffffffffffffff82169050919050565b600061053e82610513565b9050919050565b61054e81610533565b82525050565b60006020820190506105696000830184610545565b92915050565b600082825260208201905092915050565b7f4f6e6c7920746865206f776e657220697320616c6c6f77656420746f2061646460008201527f206e6577207265636f7264732e00000000000000000000000000000000000000602082015250565b60006105dc602d8361056f565b91506105e782610580565b604082019050919050565b6000602082019050818103600083015261060b816105cf565b9050919050565b7f4e487b7100000000000000000000000000000000000000000000000000000000600052601160045260246000fd5b600061064c826102ef565b9150610657836102ef565b92508282101561066a57610669610612565b5b828203905092915050565b7f4e487b7100000000000000000000000000000000000000000000000000000000600052603260045260246000fdfea26469706673582212203f4a180897f3082286c3bd1645d95150f6374d9d3546ebadc23f4c83b2e3b34564736f6c63430008090033",
  "linkReferences": {},
  "deployedLinkReferences": {}
}